:020000040800F2
:100000000000022069ED00080155000803550008B2
:1000100005550008075500080955000800000000B4
:10002000000000000000000000000000E1E90008FE
:100030000B5500080000000081EA0008D5DF000829
:10004000B9ED0008B9ED0008B9ED0008B9ED0008F8
:10005000B9ED0008B9ED0008B9ED00080D5500082C
:10006000B9ED0008B9ED0008B9ED0008B9ED0008D8
:1000700019550008B9ED000829550008B9ED000828
:100080003955000849550008B9ED0008B9ED0008D8
:10009000B9ED0008B9ED0008B9ED0008B9ED0008A8
:1000A000B9ED0008B9ED0008B9ED0008B9ED000898
:1000B000B9ED0008B9ED0008B9ED0008B9ED000888
:1000C000B9ED0008B9ED0008B9ED0008B9ED000878
:1000D000B9ED000859550008695500087955000820
:1000E000B9ED0008B9ED0008B9ED0008B9ED000858
:1000F000B9ED0008B9ED0008B9ED0008B9ED000848
:10010000B9ED0008D9550008B9ED0008B9ED0008AF
:10011000B9ED0008B9ED000889550008B9ED0008EF
:10012000B9ED0008B9ED000899550008A955000877
:10013000B9ED0008B9ED0008B9ED0008B9ED000807
:10014000B9ED0008B9ED0008B9ED0008B9ED0008F7
:10015000B9ED0008B9550008C9550008E155000877
:10016000B9ED0008B9ED0008B9ED0008B9ED0008D7
:10017000B9ED0008B9ED0008B9ED00080000000075
:08018000B9ED0008B9ED00081B
:1001900001F0FF01102A2BDB10F0070F08D010F838
:1001A000013B013A8B422DD010F0070F42B3F6D13C
:1001B000F0B441EA012141EA014122F007047FF055
:1001C00000070023F0E80256083C85EA010586EAAC
:1001D000010685FA47F5A3FA87F586FA47F6A5FAE8
:1001E00087F68EB9EED1F0BC01F0FF0102F00702F4
:1001F00032B110F8013B013A83EA010313B1F8D19F
:100200000020704701387047002D06BF354603387F
:10021000073815F0010F07D1013015F4807F02BFB8
:10022000013015F4C03F0130F0BC0138704700BF09
:10023000034613F8012B002AFBD1181A0138704726
:1002400081F0004102E000BF83F0004330B54FEA87
:1002500041044FEA430594EA050F08BF90EA020FF4
:100260001FBF54EA000C55EA020C7FEA645C7FEA87
:10027000655C00F0E2804FEA5454D4EB5555B8BFAA
:100280006D420CDD2C4480EA020281EA030382EA1B
:10029000000083EA010180EA020281EA0303362DAD
:1002A00088BF30BD11F0004F4FEA01314FF4801C80
:1002B0004CEA113102D0404261EB410113F0004F92
:1002C0004FEA03334CEA133302D0524263EB430349
:1002D00094EA050F00F0A780A4F10104D5F1200EE7
:1002E0000DDB02FA0EFC22FA05F2801841F1000142
:1002F00003FA0EF2801843FA05F359410EE0A5F116
:1003000020050EF1200E012A03FA0EFC28BF4CF046
:10031000020C43FA05F3C01851EBE37101F00045FC
:1003200007D54FF0000EDCF1000C7EEB00006EEB09
:100330000101B1F5801F1BD3B1F5001F0CD3490893
:100340005FEA30004FEA3C0C04F101044FEA4452EA
:1003500012F5800F80F09A80BCF1004F08BF5FEA71
:10036000500C50F1000041EB045141EA050130BD51
:100370005FEA4C0C404141EB0101013C28BFB1F563
:10038000801FE9D291F0000F04BF01460020B1FAAE
:1003900081F308BF2033A3F10B03B3F120020CDA81
:1003A0000C3208DD02F1140CC2F10C0201FA0CF05F
:1003B00021FA02F10CE002F11402D8BFC2F1200CC4
:1003C00001FA02F120FA0CFCDCBF41EA0C0190407A
:1003D000E41AA2BF01EB0451294330BD6FEA0404C3
:1003E0001F3C1CDA0C340EDC04F11404C4F12002AE
:1003F00020FA04F001FA02F340EA030021FA04F3C0
:1004000045EA030130BDC4F10C04C4F1200220FA16
:1004100002F001FA04F340EA0300294630BD21FA54
:1004200004F0294630BD94F0000F83F4801306BF1A
:1004300081F480110134013D4EE77FEA645C18BF0E
:100440007FEA655C29D094EA050F08BF90EA020FA5
:1004500005D054EA000C04BF1946104630BD91EA9D
:10046000030F1EBF0021002030BD5FEA545C05D1A0
:100470004000494128BF41F0004130BD14F58004DF
:100480003CBF01F5801130BD01F0004545F0FE4153
:1004900041F470014FF0000030BD7FEA645C1ABF88
:1004A000194610467FEA655C1CBF0B46024650EABF
:1004B000013406BF52EA033591EA030F41F40021EB
:1004C00030BD00BF90F0000F04BF0021704730B571
:1004D0004FF4806404F132044FF000054FF0000146
:1004E00050E700BF90F0000F04BF0021704730B507
:1004F0004FF4806404F1320410F0004548BF4042DC
:100500004FF000013EE700BF42004FEAE2014FEA30
:1005100031014FEA02701FBF12F07F4393F07F4F0B
:1005200081F06051704732F07F4208BF704793F00E
:100530007F4F04BF41F40021704730B54FF4607421
:1005400001F0004521F000411CE700BF50EA010224
:1005500008BF704730B54FF000050AE050EA0102CD
:1005600008BF704730B511F0004502D5404261EB3D
:1005700041014FF4806404F132045FEA915C3FF47E
:10058000D8AE4FF003025FEADC0C18BF03325FEA1B
:10059000DC0C18BF033202EBDC02C2F1200300FACC
:1005A00003FC20FA02F001FA03FE40EA0E0021FAF1
:1005B00002F11444BDE600BF70B54FF0FF0C4CF4DF
:1005C000E06C1CEA11541DBF1CEA135594EA0C0F91
:1005D00095EA0C0F00F0DEF82C4481EA030621EACC
:1005E0004C5123EA4C5350EA013518BF52EA033507
:1005F00041F4801143F4801338D0A0FB02CE4FF0B9
:100600000005E1FB02E506F00042E0FB03E54FF0E8
:100610000006E1FB03569CF0000F18BF4EF0010EE0
:10062000A4F1FF04B6F5007F64F5407404D25FEADC
:100630004E0E6D4146EB060642EAC62141EA55518F
:100640004FEAC52040EA5E504FEACE2EB4F1FD0CD1
:1006500088BFBCF5E06F1ED8BEF1004F08BF5FEA4F
:10066000500E50F1000041EB045170BD06F0004601
:1006700046EA010140EA020081EA0301B4EB5C04AE
:10068000C2BFD4EB0C0541EA045170BD41F48011A6
:100690004FF0000E013C00F3AB8014F1360FDEBFCB
:1006A000002001F0004170BDC4F10004203C35DAA7
:1006B0000C341BDC04F11404C4F1200500FA05F32A
:1006C00020FA04F001FA05F240EA020001F00042CB
:1006D00021F0004110EBD37021FA04F642EB060141
:1006E0005EEA430E08BF20EAD37070BDC4F10C046B
:1006F000C4F1200500FA04F320FA05F001FA04F22F
:1007000040EA020001F0004110EBD37041F100011A
:100710005EEA430E08BF20EAD37070BDC4F1200525
:1007200000FA05F24EEA020E20FA04F301FA05F28D
:1007300043EA020321FA04F001F0004121FA04F235
:1007400020EA020000EBD3705EEA430E08BF20EA05
:10075000D37070BD94F0000F0FD101F0004640003F
:1007600041EB010111F4801F08BF013CF7D041EAC1
:10077000060195F0000F18BF704703F000465200C5
:1007800043EB030313F4801F08BF013DF7D043EA96
:100790000603704794EA0C0F0CEA135518BF95EA4C
:1007A0000C0F0CD050EA410618BF52EA4306D1D1D3
:1007B00081EA030101F000414FF0000070BD50EAF2
:1007C000410606BF1046194652EA430619D094EA7C
:1007D0000C0F02D150EA013613D195EA0C0F05D166
:1007E00052EA03361CBF104619460AD181EA0301BA
:1007F00001F0004141F0FE4141F470014FF0000072
:1008000070BD41F0FE4141F4780170BD70B54FF00C
:10081000FF0C4CF4E06C1CEA11541DBF1CEA13558C
:1008200094EA0C0F95EA0C0F00F0A7F8A4EB05046E
:1008300081EA030E52EA03354FEA013100F0888065
:100840004FEA03334FF0805545EA131343EA12632E
:100850004FEA022245EA111545EA10654FEA0026E3
:100860000EF000419D4208BF964244F1FD0404F59C
:10087000407402D25B084FEA3202B61A65EB0305F8
:100880005B084FEA32024FF480104FF4002CB6EBB5
:10089000020E75EB030E22BFB61A754640EA0C0035
:1008A0005B084FEA3202B6EB020E75EB030E22BF75
:1008B000B61A754640EA5C005B084FEA3202B6EBB6
:1008C000020E75EB030E22BFB61A754640EA9C0075
:1008D0005B084FEA3202B6EB020E75EB030E22BF45
:1008E000B61A754640EADC0055EA060E18D04FEA03
:1008F000051545EA16754FEA06164FEAC30343EAA3
:1009000052734FEAC2025FEA1C1CC0D111F4801F6F
:100910000BD141EA00014FF000004FF0004CB6E768
:1009200011F4801F04BF01430020B4F1FD0C88BF07
:10093000BCF5E06F3FF6AFAEB5EB030C04BFB6EB12
:10094000020C5FEA500C50F1000041EB045170BD05
:100950000EF0004E4EEA113114EB5C04C2BFD4EB32
:100960000C0541EA045170BD41F480114FF0000EB6
:10097000013C90E645EA060E8DE60CEA135594EA32
:100980000C0F08BF95EA0C0F3FF43BAF94EA0C0F35
:100990000AD150EA01347FF434AF95EA0C0F7FF4AA
:1009A00025AF104619462CE795EA0C0F06D152EAFE
:1009B00003353FF4FDAE1046194622E750EA4106E2
:1009C00018BF52EA43067FF4C5AE50EA41047FF4F3
:1009D0000DAF52EA43057FF4EBAE12E74FF0FF3C58
:1009E00006E000BF4FF0010C02E000BF4FF0010C29
:1009F0004DF804CD4FEA410C7FEA6C5C4FEA430CA2
:100A000018BF7FEA6C5C1BD001B050EA410C0CBFF0
:100A100052EA430C91EA030F02BF90EA020F002052
:100A2000704710F1000F91EA030F58BF994208BFB9
:100A300090422CBFD8176FEAE37040F00100704776
:100A40004FEA410C7FEA6C5C02D150EA013C07D1CD
:100A50004FEA430C7FEA6C5CD6D152EA033CD3D018
:100A60005DF8040B704700BF8446104662468C4612
:100A70001946634600E000BF01B5FFF7B7FF002845
:100A800048BF10F1000F01BD4DF808EDFFF7F4FF6E
:100A90000CBF012000205DF808FB00BF4DF808EDF9
:100AA000FFF7EAFF34BF012000205DF808FB00BF1C
:100AB0004DF808EDFFF7E0FF94BF012000205DF83E
:100AC00008FB00BF4DF808EDFFF7CEFF94BF0120F3
:100AD00000205DF808FB00BF4DF808EDFFF7C4FFEC
:100AE00034BF012000205DF808FB00BF4FEA410C35
:100AF0007FEA6C5C02D150EA013C0AD14FEA430C18
:100B00007FEA6C5C02D152EA033C02D14FF0000054
:100B100070474FF0010070474FEA410212F5001292
:100B200015D211D56FF47873B3EB625212D94FEA34
:100B3000C12343F0004343EA505311F0004F23FA1E
:100B400002F018BF404270474FF00000704750EA73
:100B5000013005D111F0004008BF6FF00040704730
:100B60004FF00000704700BF4FEA4102B2F1E0438E
:100B700024BFB3F5001CDCF1FE5C0DD901F0004C84
:100B80004FEAC0024CEA5070B2F1004F40EB8300D4
:100B900008BF20F00100704711F0804F21D113F100
:100BA0003872BCBF01F00040704741F480114FEA39
:100BB0005252C2F11802C2F1200C10FA0CF320FAC2
:100BC00002F018BF40F001004FEAC1234FEAD323DF
:100BD00003FA0CFC40EA0C0023FA02F34FEA430349
:100BE000CCE77FEA625307D150EA01331EBF4FF0D2
:100BF000FE4040F44000704701F0004040F0FE40ED
:100C000040F40000704700BF53B94AB9002908BF3B
:100C100000281CBF4FF0FF314FF0FF3000F00CB840
:100C2000ADF1080C6DE904CE10F0F4FFDDF804E03E
:100C3000DDE9022304B07047704700BF0348044B4E
:100C4000834202D0034B03B11847704710020020C3
:100C500010020020000000000548064B1B1AD90FA7
:100C600001EBA301491002D0034B03B118477047B1
:100C700010020020100200200000000010B5064CF9
:100C8000237843B9FFF7DAFF044B13B10448AFF3FD
:100C900000800123237010BD10020020000000001E
:100CA000D01E010808B5054B1BB105490548AFF337
:100CB0000080BDE80840FFF7CFBF00BF0000000084
:100CC00014020020D01E0108054B064A1A600022BB
:100CD0005A609A60DA601A615A6176229A617047A6
:100CE00020220020002C01400D4B1B68B3F5805FD3
:100CF00012D240F6E44202FB03F303F2FF73094A07
:100D0000A2FB03129B1A02EB5303D80AB3F1006F44
:100D100004D34FF6FF7001E040F6E44080B2704724
:100D2000000000200101100030B10168034A116089
:100D300041685160037A1372704700BF601D002044
:100D400008B52DED028B1B4B1868B8B102210DF0D0
:100D5000B3FA10B19FED188A12E0184B93ED0E8A8A
:100D6000144B18680DF0D7FAF7EE007AB4EEE78A64
:100D7000F1EE10FA04D59FED108A08E09FED0E8A7F
:100D8000DFED0F7AB4EEE78AF1EE10FA0CDCF6EE46
:100D9000007A38EE278ABCEEC88A18EE103A98B26C
:100DA00028B1BDEC028B08BD9FED058AEFE7C82096
:100DB000F7E700BF841D0020000048432C020020FC
:100DC00000FF7F4710B50446074B186818B105218E
:100DD0000DF072FA00B110BD044B1C83024B186871
:100DE0000DF099FAF7E700BF841D00202C020020C7
:100DF00008B5F7EE007AB4EE670AF1EE10FA07D103
:100E00000F4B1B78012B06D801330D4A137002E0FB
:100E10000B4B00221A700A4B1B78012B06D9094B89
:100E2000186818B105210DF047FA00B108BD064B4E
:100E300001225A82034B18680DF06DFAF6E700BFE5
:100E40001C1C0020841D00202C02002008B5FFF788
:100E50004BFF40F2DB53984207D80F4B1B78012B16
:100E600006D801330C4A137002E00B4B00221A70B3
:100E7000094B1B78012B06D9084B186818B10521BE
:100E80000DF01AFA00B108BD054B01221A82034B7E
:100E900018680DF040FAF6E71D1C0020841D0020A4
:100EA0002C020020A8B110B504460A4B186818B1EE
:100EB00002210DF001FA00B110BD2268064B1A6044
:100EC00062685A60227A1A72024B18680DF023FA8F
:100ED000F2E77047841D0020601D002010B5154BFF
:100EE000186818B105210DF0E7F990B1012003F061
:100EF00089FE114C00220821204606F057FA40F6E0
:100F0000B8300DF01BF901220821204606F04EFAF8
:100F100010BD0A4B5A6D9B6D094C6260A3600023A3
:100F2000237506F049FD2061024B18680DF0F3F9B6
:100F3000DCE700BF841D0020000802402C020020D6
:100F40006C1D002008B52DED028BB0EE408AF0EE4E
:100F5000608A002003F056FEF0EE680AB0EE480A00
:100F600003F0BAFDBDEC028B08BD00002DE9F04195
:100F70008AB0002405940694079408940994009478
:100F8000424B1A6B42F004021A631A6B02F004021D
:100F90000092009A01941A6B42F080021A631A6B55
:100FA00002F080020192019A02941A6B42F001024F
:100FB0001A631A6B02F001020292029A03941A6BEE
:100FC00042F002021A631A6B02F002020392039AC1
:100FD00004941A6B42F008021A631B6B03F00803B7
:100FE0000493049BDFF8B08022460221404606F0BD
:100FF000DDF9274D22462021284606F0D7F90122A7
:101000000821284606F0D2F9224F22464FF480519B
:10101000384606F0CBF9022605964FF4881306935E
:10102000079405A9284606F0CBF8059601260696F2
:101030000794089405A9404606F0C2F820230593BA
:1010400006960794089405A9284606F0B9F80823DF
:10105000059306960794089405A9284606F0B0F86B
:101060004FF48053059306960794089405A93846D3
:1010700006F0A6F822462146072006F063FC07206A
:1010800006F070FC0AB0BDE8F08100BF00380240F5
:1010900000080240000402400000024010B582B087
:1010A000002400942E4B1A6B42F480021A631A6BD0
:1010B00002F480020092009A01941A6B42F400122A
:1010C0001A631B6B03F400130193019B2246052155
:1010D0000C2006F037FC0C2006F044FC22460521CB
:1010E0000E2006F02FFC0E2006F03CFC22460521C7
:1010F000102006F027FC102006F034FC22460521C3
:10110000112006F01FFC112006F02CFC22460521C0
:101110003A2006F017FC3A2006F024FC224605216E
:101120003B2006F00FFC3B2006F01CFC224605216C
:10113000452006F007FC452006F014FC2246052158
:10114000462006F0FFFB462006F00CFC2246052157
:10115000312006F0F7FB312006F004FC02B010BD90
:101160000038024010B50CF081FF0446FFF76EFE18
:101170000A3420460CF0F0FFF8E7000030B583B0E9
:101180000CF074FF0446002505350E4BD3ED007AB4
:101190009FED0D7A67EE877A1B7A0C4A9169D269C6
:1011A00001920091FDEEE77A17EE902A2946084851
:1011B0000EF01AFB04F59C54083420460CF0CCFFCA
:1011C000E2E700BF601D00200000C842201D002093
:1011D000E81E010810B50CF049FF04460CF046FF6C
:1011E0000146044801F084FF143420460CF0B4FF9B
:1011F000F4E700BFE41B002010B50CF037FF0446F5
:10120000044803F083F904F57A7420460CF0A4FF37
:10121000F6E700BFB01B002070B58EB00CF026FFC3
:10122000064600258DF8135029E02F4B069A1A60C8
:10123000099A5A60089A9A60079ADA6083ED050A5B
:101240002A4C0DF1140CBCE80F000FC49CE80300FD
:1012500084E80300264B18680DF05DF8254B1868EC
:1012600020B100231A4605A90DF096F905A92248D8
:1012700001F08CF906F57A7630460CF06DFF1F4BC5
:101280001B68596A6C46204600F034FE0BAB94E8AC
:10129000070083E807001846FFF704FE9DED0B0AE0
:1012A00003F0B8FC05A9164803F07CFD28469DED27
:1012B000090A03F0B3FE01350D4B18680028CDD0A4
:1012C00005210CF0F9FF0028C8D10DF11300064BE1
:1012D00093ED070A03F02CFF9DF81330002BA4D1E7
:1012E0009FED080AA1E700BF2C020020481D002046
:1012F000841D00208C1D0020940200201821002055
:10130000A01B00200000000010B50CF0AFFE04464A
:10131000034801F0BDF9643420460CF01DFFF7E7E7
:101320009402002070B5B2B00CF0A0FE0446002379
:101330002C932D932E932F9330933193314B039312
:10134000314B0493314B0593314B0693314B07934B
:10135000314B0893314B1B6809931CE02023009309
:1013600024AB2CAA0021012001F065FA054668B1E2
:101370002A4B186820B105210CF09EFF00282BD0C5
:10138000234B1B78002B36D1224B1B7804F57A7443
:1013900020460CF0E1FE224B18680028DED0002326
:1013A0001A462CA90DF03AF90028D7D01B4B186823
:1013B0000028D3D005210CF07FFF0028CED12CAD22
:1013C000184E0FCE0FC596E8030085E80300134BB7
:1013D00018680CF0A0FFC1E768220F490AA80EF0B8
:1013E00032FC0E4B18680CF096FF0A4A08490AA80E
:1013F00001F006FAC4E764232A4624A903A801F0F1
:101400005DFAC1E740200020F81F00200400002002
:101410001F1C00201E1C00202C020020841D002008
:101420008C1D0020481D002010B50CF01FFE044646
:1014300008E0094A136A0133136204F57A742046FE
:101440000CF08AFE054806F09FFD0028F1D0024A04
:10145000536A01335362F0E7201D0020C4220020AC
:1014600008B5194B5B6F13F0005F19D1164B5B6F1A
:1014700013F0804F18D1144B5B6F13F0805F17D1BE
:10148000114B5B6F13F0006F16D10F4B5B6F13F0B6
:10149000806F15D10C4A536F43F08073536708BDBA
:1014A0000A480EF011FAE1E709480EF00DFAE2E7FA
:1014B00008480EF009FAE3E707480EF005FAE4E7FA
:1014C00006480EF001FAE5E7003802402C1F01083B
:1014D000401F0108541F01086C1F0108841F0108E8
:1014E00010B582B004468DF80700012001F07CF9A8
:1014F0000A2C0CD00A2301220DF10701094808F03B
:1015000088FA002001F070F9204602B010BD0D23CA
:101510008DF806300A2301220DF10601014808F07A
:1015200078FAE7E7F81F002008B503680A4A9342F3
:1015300006D00A4A934207D0094A934208D008BD10
:10154000084801F057FCFAE7074802F0D9FFF6E730
:10155000064B01221A70F2E70010014000440040DF
:1015600000480040E41B0020B01B002004000020C5
:1015700008B50368094A934203D0094A934206D04A
:1015800008BD0029F9D0074801F03AFCF8E7002926
:10159000F6D0054802F0BCFEF2E700BF00100140A3
:1015A00000440040E41B0020B01B002008B5036885
:1015B000074A934203D0074A934204D008BD064825
:1015C00001F09AFCFAE7054802F070FFF6E700BF69
:1015D0000010014000440040E41B0020B01B00202C
:1015E000022800D0704710B588B00A4B1B68596AB2
:1015F0006C46204600F006FC05AB94E8070083E843
:1016000007001846FFF790FB9DED050A03F002FB6B
:1016100008B010BD1821002008B50268034B9A429B
:1016200000D008BD06F0BCF9FBE700BF0010004089
:1016300072B6FEE708B50A480A4B03604FF4E1337F
:10164000436000238360C36003610C2242618361B5
:10165000C36108F0AEF900B908BDFFF7E9FF00BFAC
:10166000D02000200010014008B50A480A4B036052
:101670004FF41653436000238360C36003610C2260
:1016800042618361C36108F094F900B908BDFFF7B6
:10169000CFFF00BF882000200044004008B50A4862
:1016A0000A4B03604FF46143436000238360C360CF
:1016B00003610C2242618361C36108F07AF900B9C9
:1016C00008BDFFF7B5FF00BF4020002000480040E4
:1016D00008B50A480A4B03604FF461434360002396
:1016E0008360C36003610C2242618361C36108F0BF
:1016F00060F900B908BDFFF79BFF00BFF81F00208D
:101700000014014000B585B00023009301930293BB
:1017100003931848184A02604FF4403242608360D5
:1017200003610122027680F82030C362134981628E
:10173000C360C26180F83020426106F0F1F998B9C7
:101740000C23009301230193072302936946094860
:1017500006F022FB50B901220949064806F00CFAAE
:1017600030B905B05DF804FBFFF762FFFFF760FFDB
:10177000FFF75EFF30230020002001400100000F32
:101780000000002008B50748074B036006234360AC
:1017900040F25273836006F0C9FB00B908BDFFF741
:1017A00047FF00BFC42200200030004000B587B0D2
:1017B000002301930293039304930593009321481C
:1017C000214A026043607F228260FF22C26003617F
:1017D0004361836106F030FC48B90021194806F0E6
:1017E00085FD1A4B984204D107B05DF804FBFFF762
:1017F0001FFF00228DF804208DF805208DF80620AB
:101800000492059201A90F4806F070FCA8B90123C3
:101810008DF800308DF801308DF802301A238DF8E4
:10182000033000226946074806F0C0FC38B9074A71
:101830000021044806F055FDD6E7FFF7F9FEFFF753
:10184000F7FE00BFA4220020002800405A5AA5A598
:1018500000B589B00023039304930593069307937F
:10186000019302931448154A026053224260836038
:101870004FF0FF32C2600361836104F0D9FDA0B96B
:101880000023039304930593079303A90A4804F0E4
:1018900064FE60B900230193029301A9064804F095
:1018A00085FE30B909B05DF804FBFFF7C1FEFFF714
:1018B000BFFEFFF7BDFE00BF18210020000C004056
:1018C00000B595B03022002108A80EF03DF90023A4
:1018D000039304930593069307930193224A116C93
:1018E00041F080511164126C02F080520192019A11
:1018F00002931E4B1A6842F480421A601B6803F47C
:1019000080430293029B092308934FF48033099389
:1019100001230D9302230E934FF480020F9219229C
:1019200010924FF4A872119212930823139308A8EF
:1019300004F084FE98B90F23039302230493002339
:1019400005934FF4A05306934FF48053079305215A
:1019500003A805F0C3F820B915B05DF804FBFFF744
:1019600067FEFFF765FE00BF0038024000700040D0
:101970002DE9804883B005F0F9FFFFF7A1FFFFF7DD
:10198000F5FAFFF78BFBFFF755FEFFF76DFEFFF74C
:1019900085FEFFF79DFEFFF7B5FEFFF795F9FFF710
:1019A000F1FEFFF703FF04F02BFBFFF751FFDFF819
:1019B0002C930024C9F80040C9F80440C9F8084035
:1019C000C9F80C40C9F81040C9F81440864B1C6097
:1019D0005C609C60DFF80883C8F80040C8F80440E9
:1019E000C8F80840C8F80C40C8F81040C8F81440BF
:1019F000DFF8F0B22822214658460EF0A5F87B4EBB
:101A00006822214630460EF09FF8794D3822214653
:101A100028460EF099F8774F3C607C60BC60FC6013
:101A2000754B3360754B7360754BB360754BF360EA
:101A3000304603F06BFC01230093734B734AC821BB
:101A4000012000F0B1F9724804F054FBFFF708FDE3
:101A500070480DF039FF704B596870480DF0C4FEA6
:101A60006F480DF031FF0CF0C1FA20460CF0DBFBA3
:101A7000DFF874A2CAF800002246882108200CF082
:101A800040FD684B18602246882108200CF039FD83
:101A9000654A10602246182104200CF032FD634B89
:101AA000186020460CF070FB61490860614B2B60A8
:101AB000614B6B60614BAB604FF0800CA5F80CC0C4
:101AC000584B1B682B61DAF800306B61A861C5F8D0
:101AD0001C90C5F820B05A4B6B625A4BAB625A4B04
:101AE000EB625A4B2B635A4B6B63284601F04CF95F
:101AF000DAF800303B607E60C7F80880C7F80CB0A9
:101B0000384602F07DFF304602F076FF03F05EFAC1
:101B1000CDF800B04F4B504A5049514800F024FDD9
:101B2000504D3422214628460EF00EF84E4B2B60C5
:101B30004E4B6B604E4BAB604FF0800CA5F80CC069
:101B4000394A13682B61DAF800306B6138490B6849
:101B5000AB61EE61C5F820B04FF0010385F8243089
:101B6000444BAB620823EB62434B2B63284602F0E5
:101B7000ADFB424A214642480CF082FA414B1860C4
:101B8000414A214641480CF07BFA414B1860414ADA
:101B9000214641480CF074FA404B1860404A2146F7
:101BA00040480CF06DFA404B1860404A21464048CE
:101BB0000CF066FA3F4B18603F4A21463F480CF054
:101BC0005FFA3F4B18603F4A21463F480CF058FAF5
:101BD0003E4B18603E4A21463E480CF051FA3E4BBF
:101BE00018600CF027FAFEE7601D00202C02002090
:101BF000E41B0020A01B00200000F64200005E4312
:101C000066A6A6433333DE43C0C62D0080969800F7
:101C100018210020981F0108F81F0020B41F010898
:101C2000DC1F0108941D0020901D00208C1D002049
:101C3000881D0020D0200020981F0020A01C00201C
:101C4000450F0008F10D0008C50D0008DD0E000865
:101C5000410D0008583F0020203D0020A422002014
:101C600094020020B01B002088200020D81E0020F5
:101C7000201C002074300108B927000890310108A9
:101C800065110008B41D00206C310108D511000851
:101C9000B01D002048310108F9110008AC1D0020DA
:101CA0002431010819120008A81D00200031010884
:101CB00025130008A41D0020DC30010829140008A9
:101CC000A01D0020B8300108091300089C1D002049
:101CD000943001087D110008981D00206C1D002023
:101CE000481D0020201D0020841D00200A4AB2F853
:101CF0002434191D02EBC101486081ED020A013351
:101D000003F07F03A2F82434B2F826347F2B02D8E4
:101D10000133A2F826347047782300202DE9F041E2
:101D20008046002637460024002512E004331D4A71
:101D300002EBC3039868FEF7E7FB02460B4620461A
:101D40002946FEF783FA04460D460137BFB2013635
:101D5000B6B2144BB3F82634B3420FD91149B1F8D7
:101D600024349B1B7F3303F07F031A1D01EBC20257
:101D70005268A8EB020209699142D7D277B138467E
:101D8000FEF7A0FB02460B4620462946FEF73EFD25
:101D9000FEF7EAFE00EE100ABDE8F081014B93ED7C
:101DA000060AF9E77823002070B49DF80C40124D24
:101DB00000262E60054600B901250F48456001B98F
:101DC000C8210D48816002B90C4A0B49CA6003B9A9
:101DD0000B4B094A136104B10124074B1C75002207
:101DE0005A7500219961DA6183F82020A3F8242430
:101DF000A3F8262470BC70477823002040420F00CF
:101E0000C0C62D002DE9F0472DED028B86B00446AB
:101E10000D46344B5B7D002B47D0324A1368CB1AFA
:101E2000116092689A424AD82E4AD36107EE903ADE
:101E3000F8EE677A92ED017AB8EE477A67EE877A24
:101E40009FED297A87EE278A137D002B3DD1254B04
:101E500083ED068A234D012385F82030D5F81C80B8
:101E600095F81490D5F810A0A869FEF74DFB06462A
:101E70000F46CDF810A0CDF80C90CDF8088018EEE4
:101E8000100AFEF741FBCDE9000132463B461748F8
:101E90000DF0AAFC183595E8070084E807002046F5
:101EA00006B0BDEC028BBDE8F0870E4B1960012235
:101EB0005A75183393E8070084E80700EFE70C4BE6
:101EC00093E8070084E80700E9E7B0EE480A08460F
:101ED000FFF70CFF2846FFF721FF024B83ED060AB0
:101EE000B8E700BF78230020C0E1644C70200108EF
:101EF0009023002038B50446124B5B7D6BB1114B2B
:101F00001A688A1ADB689A4207D90E49D1ED067A17
:101F1000F5EE407AF1EE10FA06D10B4B93E807008C
:101F200084E80700204638BD0D46C96907480DF012
:101F30005BFC0023AB610023EB61012385F82030BB
:101F4000EBE700BF7823002090230020B820010891
:101F500000B586464FF0000C4FF6FF7010E04008C9
:101F60000133DBB2072B07D810F0010FF7D04AF28C
:101F7000010282EA5000F3E70CF1010C1FFA8CFC1D
:101F80008C4504D21EF80C3058400023EAE75DF877
:101F900004FBE0B110B50C46D9B1072A1BD9027871
:101FA0000A7042784A704288120A8A708278CA702F
:101FB0008288120A0A7103794B7106212046FFF7C5
:101FC000C7FFA071C0F30720E071082010BD0020FA
:101FD00070470020FAE70020F8E7B8B370B50D4667
:101FE00014460646A2B3042934D9023989B2FFF750
:101FF000AFFF721912F8023C12F8012C43EA0223D7
:10200000984229D13378237073786370B278A270C4
:10201000032B23D1531D9D4222D15508412A21D89B
:10202000A4F8445000230BE05A00D11C705C991CAA
:1020300016F8111041EA00212244918001339BB22D
:10204000AB42F1D3012084F8460004E00020704741
:10205000002000E0002070BD0020FCE70020FAE72F
:102060000020F8E70020F6E700231E2B09D81A010C
:1020700005498A5A824201D00133F6E701EB031089
:1020800070470020704700BFB43101080346A8B173
:10209000B1B1C078CA78904202D00020C0B2704777
:1020A00058784A78904201D00020F7E79A788B78E8
:1020B0009A4201D00020F1E70120EFE700207047AD
:1020C000002070470138C0B2082807D840F2051335
:1020D000C34013F0010F01D00120704709B900205F
:1020E0007047012070470000014680B1002347F28D
:1020F00030504A7E9A4206D9084A90420AD8400097
:102100000133DBB2F5E7064B984205D8704747F23A
:1021100030507047024870470148F7E7EF49020026
:10212000E093040010B582B000230193B8B10446D7
:10213000437CB3B1837C13B1002002B010BD01AB6E
:1021400025220949543009F04BFC0028F5D1019BA8
:10215000252B01D00120F0E70123A374EDE709202E
:10216000EBE70920E9E700BFFC22010888B110B5C0
:102170000446406878B1A16879B1237C0BB1002096
:1021800010BD012209F0C8FA0028F9D101232374F7
:10219000F6E7092070470920F2E70920F0E778B157
:1021A00010B50446437C3BB9002323746374A374C5
:1021B000A37584F8243010BD543009F074FDF3E7A2
:1021C0007047000038B598B10546FFF7E8FF0948A9
:1021D00006F0DBFE03F0B8FD044610B100242046F3
:1021E00038BD03F089FD0028F9D101242C76F6E7EB
:1021F0000024F4E7202200202DE9F04186B00028D9
:102200004CD00C46054600294AD0467C36B1837D29
:1022100023B12030FFF73AFF002843D1F6B905F18A
:1022200024066378A27821796079A77904970390CE
:10223000029101920093E3781B4A302130460DF061
:102240004BFB05F1540712223146384609F0A6FA35
:10225000064658B1304606B0BDE8F08105F154009D
:1022600009F021FD00236B74AB74D8E7D5F86080CA
:102270004146384609F034FD064658B901236B74CF
:10228000B8F1000F00D10346AB7423682B62012321
:10229000AB75DFE7384609F006FDDBE70926D9E72D
:1022A0000926D7E70026D5E7242301082DE9F04FBA
:1022B0002DED048BBFB0984600233D93002800F01D
:1022C000E4800E4617460546002900F0E080B1F88C
:1022D000403B002B00F0DD800AB100231370B8F101
:1022E000000F02D00023C8F800302846FFF73EFF59
:1022F000034620B900241297CDF84C8069E0002FE6
:1023000000F0C88001223A70C4E004EB440106EBFF
:1023100001112846FFF770FF034600286ED12846BA
:10232000FFF700FF0346002874D104EB440306EBDB
:102330000313DA7811925F7893F8028093F804908F
:1023400093F805A093F806B093ED078AD3ED088AB9
:1023500093ED099A986A04EB440306EB0313DB6AD6
:102360000E93FEF7D1F8CDE90C0119EE100AFEF735
:10237000CBF8CDE90A0118EE900AFEF7C5F8CDE9D1
:10238000080118EE100AFEF7BFF8CDE90601CDF8F6
:1023900010B0CDF80CA0CDF80890CDF804800097CF
:1023A000119B3F4AA02115A80DF096FA0746431E3F
:1023B0009E2B3BD83DAB024615A905F1540009F010
:1023C0000FFB034600283ED13D9A97423BD1013492
:1023D000A4B2B6F8403BA34243D96B7C002B94D007
:1023E000AB7D002B91D004EB440106EB011105F10C
:1023F0002000FFF74BFE002897D186E7129FDDF8FB
:102400004C800FB102223A70B8F1000F42D0C8F8E8
:1024100000403FE0129FDDF84C800FB104223A707B
:10242000B8F1000F36D0C8F8004033E0129FDDF855
:102430004C800FB105233B70B8F1000F01D0C8F8F4
:102440000040132326E0129FDDF84C800FB10522D7
:102450003A70B8F1000F01D0C8F80040D3B9012399
:1024600018E0129FDDF84C8005F1540009F0C3FB21
:10247000034678B10FB106223A70B8F1000F09D0C7
:10248000B6F8402BC8F8002004E0002302E0002347
:1024900000E0002318463FB0BDEC048BBDE8F08F90
:1024A0004C23010800284AD02DE9F04786B0154694
:1024B0001E4604460139052904D8DFE801F0150657
:1024C000090C0F12DFF8809010E0DFF880900DE02B
:1024D000DFF87C900AE0DFF87C9007E0DFF8789086
:1024E00004E0DFF8789001E0DFF87490237C8BB98A
:1024F0004FF0FF38DFF86CA0504606F046FD074667
:10250000504606F03FFD237C627C94F8241029B1EC
:10251000243404E003F0F0FB8046EBE7084C05941C
:1025200004900397CDF808800192009333462A4621
:10253000494604480DF058F906B0BDE8F0877047E9
:10254000C0230108C8230108B8230108902301080B
:1025500098230108A0230108A8230108B02301083B
:10256000882301082022002078B1F8B50F461646CE
:102570001D46044641F60C1200210DF0E5FA2760D5
:102580006660A560069BE360F8BD704700287ED0BA
:10259000F0B587B00C46054659B1006848B1002235
:1025A00001A905F05AFE30B1EB6813B1DA690132C6
:1025B000DA6107B0F0BD00226946286805F073FEB5
:1025C0000028F1D1EA7C40F6443302FB03F303F523
:1025D00020762E4404362B44B3F8C43D3B2B13D94C
:1025E0002B7D002B4CD16A7501232B755A40EA7460
:1025F00040F6443303FB02F202F520762E44043603
:102600002A440023A2F8C43DB6F8407B07EB470CF0
:102610004FEA0C1306EB0C1C009AF2500CF1040C60
:102620000DF1040EBEE80F00ACE80F00DEF800303C
:10263000CCF8003007EB470E06EB0E1E0EF1180E1D
:10264000A446BCE80F00AEE80F009CE803008EE84B
:1026500003000137BFB2A6F8407B3B2FA9D92B7DE1
:10266000002BA6D1EB7C6B7501222A755340EB74CD
:1026700040F6443202FB03530022A3F8C42D98E72E
:10268000EB68002B95D0DA690132DA6191E7704787
:10269000F0B583B000238DF80730009310B10446E5
:1026A000037D0BB903B0F0BD05F086F90546E3697B
:1026B00013B1C31A002BF5DBE37D3BBB237E0BB1CB
:1026C00000232376667D40F6443106FB01F101F5D7
:1026D000207121446B460DF1070204312046FFF7BB
:1026E000E5FD074630BB40F6443303FB06460023B6
:1026F000A6F8C43D2375E37523766376E361E3684A
:10270000002BCFD09A6901329A61CBE72046FFF7C0
:1027100059FD50B9637E032B01D8013363762046FF
:10272000FFF7E2FC2844E061BCE70023E375643571
:10273000E561B7E7174806F028FC0646009B3A46D5
:102740009DF807102046FFF7ADFE2046FFF727FD56
:1027500031463846FFF7B6FC60B90023637605F5CD
:102760009C550835E561E368002B9BD0DA6901329E
:10277000DA6197E70123E375002323762046FFF70C
:10278000B3FC2844E061637E032BECD8013363760D
:10279000E9E700BF2022002082B08DED010A019BF5
:1027A0001A0E0270C3F307424270C3F307220A7085
:1027B0004B7002B07047000008B5021E18BF01221E
:1027C0004FF48051014804F0F1FD08BD00040240BF
:1027D00008B5021E18BF01222021024804F0E6FDC0
:1027E00008BD00BF0008024008B5021E18BF012244
:1027F0000221024804F0DAFD08BD00BF00000240DB
:10280000034688B181B17AB1B0F8660001280ED0D4
:1028100003280AD000200870B3F86630023B9BB250
:10282000012B06D90023137070470120F3E7012024
:10283000F1E70123F7E7EAB338B51C461546DBB3E9
:10284000BDF81030182B01D8002038BD207010239F
:1028500063700A0AA270E17000222271082262717C
:10286000A37104F10901E01D95ED010AFFF794FF42
:1028700004F10D0104F10B0095ED040AFFF78CFF44
:1028800004F1110104F10F0095ED030AFFF784FF35
:1028900004F1150104F1130095ED020AFFF77CFF26
:1028A00017212046FFF754FBE075C0F30720207680
:1028B0001920CAE7002070470020C6E72DE9F84339
:1028C000002843D0884691461E4605460368002BE3
:1028D0003ED08368002B3DD005F06EF80746AC680B
:1028E000237843B905F068F8C01BB04234D8012002
:1028F0000BF024FCF3E7002323700120FFF768FFAF
:102900004A464146286807F0EBF8044618B905F036
:1029100053F8074609E00020FFF75AFFAB6801248F
:102920001C701AE001200BF009FCAB681B784BB956
:1029300005F042F8C01BB042F4D90020FFF748FF71
:1029400003240AE00020FFF743FF06E0012404E02F
:10295000012402E0012400E003242046BDE8F883BE
:1029600000EE100A7047034600B901234FF4964069
:10297000B0FBF3F000B90120704720B108B5036B3C
:1029800003B1984708BD704728B108B5436B23B120
:10299000984720B108BDC8207047C820FAE7C82072
:1029A000F8E7000008B50A46014602480CF01CFF93
:1029B00008BD00BF2C24010810B5029C4FF0320C5A
:1029C00084F800C04FF0330C84F801C04FF0060CBF
:1029D00084F802C0E07021716271A3710721204662
:1029E000FFF7B6FAE071C0F30720207210BD0000B7
:1029F00070B52DED048B86B00546122A0CD8114611
:102A0000036A13B19A6801329A6053480CF0ECFEE5
:102A100006B0BDEC048B70BD0C4611212046FFF7BB
:102A200097FA0146627CA37C42EA0322904208D0D6
:102A30002B6A13B198680130986048480CF0D4FEB6
:102A4000E6E7E378267946EA0326454B1B78002B18
:102A500068D1444B1E80424B01221A70227AE379DE
:102A60001B0443EA0263A27943EA02236079184314
:102A7000FFF776FFF0EE408A8DED010A227BE37AC4
:102A80001B0443EA0263A27A43EA0223607A1843F2
:102A9000FFF766FFB0EE409A8DED020A227CE37BE1
:102AA0001B0443EA0263A27B43EA0223607B1843D0
:102AB000FFF756FFB0EE408A8DED030AADF80060D7
:102AC00004F07AFF049001238DF81430264B18602F
:102AD000264B00221A70686928B1EB691BB10221EC
:102AE0000BF0EAFB58B3A86910B101210BF06EFBA3
:102AF0006B6A23B1F0EE490AB0EE680A9847AB6AF8
:102B000013B1B0EE480A9847EB6A0BB130469847CC
:102B10002B6A13B15A6801325A60154A136801339F
:102B2000136075E70F4B1888431C9BB29E4202D17D
:102B30000C4B1E8092E73146FFF734FFF8E7EC6953
:102B4000EC46BCE80F000FC49CE8030084E80300D7
:102B500068690BF0E0FBC6E75C24010888240108E3
:102B6000B4280020B6280020B8280020A427002080
:102B7000B0280020002866D02DE9F0411646054611
:102B8000002953D0002A51D02F4B1B88FF2B02D98C
:102B90002D4B00221A802C4B1C88A3199BB2B3F535
:102BA000807F07D9C4F58077BFB22FB94FF00008F6
:102BB00044460CE03746F8E73A46244820440DF0F6
:102BC00042F83C44204B1C80F0E70134A4B220467C
:102BD00004F113031C4A11888B421AD821461B4B5F
:102BE0001B5D322BF1D1431C184AD35C332BECD143
:102BF0000230135C052BE8D11322144B19442846EC
:102C0000FFF7F6FE1334A4B208F101081FFA88F8A2
:102C1000DDE724B1091B8DB255B90B4B1D80B8F10E
:102C2000000F03D117B1084B1B883BB1BDE8F08101
:102C300006482A4601190CF06DFFEEE731460448BC
:102C40000CF0D2FDF2E77047A8270020AC27002047
:102C5000C024010810B504460BF0DAF9022803D0AD
:102C6000204604F0AFFE10BD20460BF067FAFAE7ED
:102C700008B50BF0CDF9022803D0012004F0A2FE24
:102C800008BD01200BF05AFAFAE700002DE9F843DD
:102C90000746884691461D4604F08EFE064601E032
:102CA000FFF7E6FF1B4B1C7864B904F085FE801B20
:102CB000A842F5D9294618480CF096FD032630465F
:102CC000BDE8F88300221A704A464146386806F08B
:102CD00007FF064618B904F06FFE04460AE0012615
:102CE0000C4B1E703B68596C0C480CF07DFDE6E700
:102CF000FFF7BEFF074B1B78002BE0D104F05CFE12
:102D0000001BA842F4D9294605480CF06DFD0326A6
:102D1000D5E700BF05000020F424010818250108AC
:102D20004425010820B370B50C4616461D460146E1
:102D3000EAB110480CF058FD1CB121460E480CF0C9
:102D400053FD29460D480CF04FFD0024AC420BD238
:102D5000315D0B480CF048FD0134A4B2AC42F5D211
:102D600020200CF053FDF1E706480CF0ADFD70BDDE
:102D7000704700BF64250108702501087C25010803
:102D80008C250108A02F010850B310B582B004466D
:102D90000368EBB14368DBB18368CBB1114B00939F
:102DA0000123002206211846FFF706FEA289A1682A
:102DB000206807F01FFA68B963681A68136823F07F
:102DC00008031360084B01221A70084B00221A8076
:102DD00002B010BD2368596C05480CF005FDF7E7FB
:102DE000704700BFC0280020AC280020A627002084
:102DF00094250108014B01221A707047050000203C
:102E0000002873D02DE9F043A3B00D460446816835
:102E100000293AD00368002B37D04368002B34D008
:102E200025B38789AF4221D3314B1E88AE421DD0D6
:102E30002ED2AF1BBFB2802F00D980273A46314433
:102E400001A80CF000FFADF88470294B1D80236AA7
:102E500013B11A6801321A6004F0AEFD00902069C7
:102E600020B100231A4669460BF096FBA289A1689F
:102E7000206807F0BFF9014608B102282ED1636827
:102E80001A68136823F00803136023B0BDE8F083C9
:102E9000A7EB06091FFA89F905EB09081FFA88F85C
:102EA000B8F1800F01D94FF08008C84507D84246D5
:102EB000314401A80CF0C7FEADF88480C5E74A464E
:102EC000314401A80CF0BFFE0DEB0900F21B424497
:102ED00092B2A16804300CF0B6FEEDE7236893F8D7
:102EE00042205B6C03480CF07FFCC8E7704700BFD2
:102EF000A6270020C0250108F0B110B504460368DC
:102F00009BB142688AB182687AB1596C0B480CF067
:102F10006BFCA289A168206807F06CF930B963687E
:102F20001A68136823F00803136010BD2368596CF6
:102F300003480CF059FCF2E7704700BF0026010877
:102F40002426010830B587B0044603AD009501235F
:102F5000002203211846FFF72FFD6423092229468A
:102F60002046FFF793FE88B90C4B01221A7004F03B
:102F700023FD0B4B186000230A4A13700A4A138082
:102F80000A4A13600A4A138007B030BD0146034B5A
:102F900000221A7007480CF027FCF5E7BC28002037
:102FA000B8280020B4280020B6280020B02800202F
:102FB000A82700205426010870B586B005460C46A7
:102FC00003AE00960123002203211846FFF7F4FC0C
:102FD0000923324621461448FFF7A4FE6423092240
:102FE00031462846FFF752FE50B101460F4B0022F2
:102FF0001A70B4B122460E480CF0F6FB06B070BD54
:103000000A4B01221A7004F0D7FC0A4B1860002307
:10301000094A1370094A1380094A1360094A138048
:10302000ECE7094CE6E700BF80260108BC28002039
:1030300094260108B8280020B4280020B6280020D3
:10304000B0280020A8270020BC24010870B586B055
:1030500004460E4603AD00950123002204211846C4
:10306000FFF7AAFC09232A4631460748FFF75AFE14
:103070006423092229462046FFF708FE034B00225D
:103080001A7006B070BD00BFC8260108BC28002019
:10309000F0B587B007460E4615460846FFF763FCB5
:1030A000044603AB0093C3B2C0F3072205210020FE
:1030B000FFF782FC9DB12B462246314609480CF0B1
:1030C00093FB092303AA29460748FFF72BFE642335
:1030D000092203A93846FFF7D9FD07B0F0BD034B1D
:1030E000EAE700BFDC26010810270108BC2401081C
:1030F000002800F09180F0B5A3B0044604F05CFC19
:103100000546464B1B7863B1444B00221A7020469B
:10311000FFF718FF05E0BDF8842001A92046FFF75E
:1031200029FD206930B100231A4669460BF076FA72
:103130000028F0D03A4B1B68AB4201D9384B1D60D8
:10314000384B1B7833B1364B19686B1A40F6B832DE
:10315000934207D8344B1B68EB1AB3F5FA6F52D27F
:1031600023B0F0BD2A4631480CF03EFB304B1B78B3
:10317000FF2B02D001332E4A13702D4B19780329EF
:1031800020D82046FFF700FC06460246284B197857
:1031900028480CF029FB284F39462046FFF756FFF8
:1031A0006420FFF757FD3A4631462046FFF770FF8F
:1031B0006420FFF74FFD39462046FFF7FDFE184B10
:1031C0001D60C7E71D480CF00FFB194B00221A7059
:1031D0002046FFF7D2FB6420FFF73CFD2046FFF7B7
:1031E000D3FB0146164E32462046FFF751FF6420BE
:1031F000FFF730FD31462046FFF7DEFE04F0DCFB32
:10320000074B1860A6E7642309220E492046FFF702
:103210003DFD054B1D60A3E7704700BFAC280020B3
:10322000B8280020BC280020A0270020242701085F
:10323000A4270020602701089C270108B027010867
:10324000FC270108C028002010EE103A10B10380BE
:103250001B0C43807047C0B10346B1B1AAB1888945
:1032600003EB000C097A11B912881A52704700B5A5
:10327000B2F802E0128842EA0E42012903D0CCF8EB
:1032800000205DF804FB1A50FBE77047A8B110B5A9
:103290000446006898B163689BB1A16899B10B4B73
:1032A00000221A80A28906F0A5FF28B963681A686F
:1032B000136823F00803136010BD0120704701203C
:1032C000FAE70120F8E70120F6E700BFCC2800204C
:1032D000F0B58BB00D4614461E46002847D0074671
:1032E0000068002846D006F023FF3B685B6C002C8A
:1032F00043D0234A126823490968234F3F68DFF807
:10330000BCC0DCF800C008930790CDF818C0059742
:10331000049103921D4B1B680293BDF84430019346
:10332000BDF84030009333462246294618480CF039
:103330005BFA184B1968184B1A88184B1B881848E9
:10334000008880B2174C2488A4B2174D2D68174E00
:103350003668174F3F6804970396029501940090D2
:103360009BB292B213480CF03FFA0BB0F0BD0023B1
:103370001846BCE700231846B9E70F4CB9E700BF71
:10338000FC2A0020F82A0020F42A0020002B00202C
:1033900018280108E42A0020E22A0020E02A002060
:1033A000DE2A0020DC2A0020D82A0020EC2A002077
:1033B000E82A0020B428010814280108F02A002077
:1033C000D8B170B50E4615460446C269BAB1C5B14A
:1033D000012B18D94069C0B105210AF06DFF08B171
:1033E000002070BDE36933441E6860690AF093FFF2
:1033F0002E80330C6B800220F3E700207047002002
:10340000EFE70020EDE70020EBE70020E9E7B8B1A7
:1034100070B50E4615460446C2699AB1A5B1ABB166
:103420004069A8B105210AF047FF08B100200EE06D
:10343000E3699E5B60690AF06EFF2E80012006E062
:1034400000207047002002E0002000E0184670BD18
:103450000020FCE70A4428B370B50D4694B2064636
:10346000C36943B1406930B140F2D973994202D87F
:10347000B4F5FB6F00D870BD05210AF01DFF0028D0
:10348000F9D1B5F5FB6F02D8F36900221A8240F238
:10349000D9739C4202D9F36900225A8270690AF0FA
:1034A0003AFFE8E770470000E0B110B5A2B004466B
:1034B00003693BB100231A46694620690BF0AEF858
:1034C0000028F7D00023084A1380084A1380084ACE
:1034D0001380084A1380084A13602046FFF7D6FE7F
:1034E00022B010BD01207047E22A0020E02A00200F
:1034F000DE2A0020DC2A0020D82A0020F8B5069C0D
:10350000C8B38446CBB3D4B35500ADB2CAB305F14A
:103510000906B6B2BDF81C00864234D89CF82400D7
:10352000207010206070080AA070E170110A2171EB
:103530006271A571002110E04FEA410C33F811E0EF
:103540000CF1070C4FEA1E2E04F80CE0081D13F8CE
:1035500011C004F810C0013189B29142ECD3EF1DC3
:10356000B9B22046FEF7F4FCE0550835C0F3072059
:1035700060553046F8BD0026FBE70026F9E7002637
:10358000F7E71646F5E70026F3E72DE9F047BDF823
:103590002090002839D00E46174698460546072940
:1035A00035D9002401E00134A4B204F1080080B24E
:1035B000B04227D8A24628192B5DBB42F3D14378ED
:1035C000102BF0D18378B3EB182FECD1C2785FFACF
:1035D00088F39A42E7D10379B3EB192FE3D142790B
:1035E0005FFA89F39A42DED10621FEF7B1FCAA44C4
:1035F0009AF806309AF8072043EA02239842D2D17B
:10360000012000E00020BDE8F0870020FBE700205B
:10361000F9E7000040B108B5006820B106F0A8FA4B
:10362000024B00221A8008BD704700BFCC28002042
:1036300000283AD070B582B00446006840B3636891
:1036400033B3A36823B3194A13680133136006F038
:103650008FFA2046FFF71AFE054628B1022819D135
:10366000134A136801331360104B1E68206806F07C
:103670005FFD03462268526C0092324629460D488F
:103680000CF0B2F863681A68136823F0080313603B
:1036900002B070BD084A13680133136023685A6C86
:1036A000014606480CF0A0F8DEE77047F02A00203B
:1036B000F42A002054290108F82A002018290108BA
:1036C00008B50AF0A5FC022803D0012004F07AF91D
:1036D00008BD01200AF032FDFAE70000D0B170B554
:1036E0000E4615460146A6B10B480CF07DF80024A5
:1036F000AC420BD2315D09480CF076F80134A4B22B
:10370000AC42F5D220200CF081F8F1E704480CF02F
:10371000DBF870BD704700BF9C2901088C250108AB
:10372000A02F01082DE9F04FB5B004460D4616460E
:10373000984604F041F9002C00F066810746B8F184
:10374000000F00F063814023019324AB00934346B4
:10375000324629462046FFF7D1FE8146F0B19E4B06
:103760001A6802F10108C3F8008023693BB1002305
:103770001A4602A920690AF051FF0028F7D0204616
:10378000FFF748FF954B1B78FBB904F015F9C31BF5
:10379000B3F5FA7F0ED8FFF793FFF3E7236A13B16F
:1037A0001A6901321A61324629468D480CF01CF81C
:1037B00001272CE1236A13B15A6901325A6141464B
:1037C00088480CF011F8032721E1844B00221A707D
:1037D000236B0BB1012098474A4624A9206806F0C4
:1037E0007FF998B1236B0BB1002098477B4B0122E6
:1037F0001A70236A13B11A6901321A6123685A6C6C
:10380000414679480BF0F0FF012700E104F0D4F8BD
:103810000746724B1B78BBB904F0CEF8C01BB0F55D
:10382000FA7F02D8FFF74CFFF3E7236B0BB10020C0
:103830009847236A13B15A6901325A6141466B486D
:103840000BF0D2FF0327E2E004F0B6F80746236846
:103850001B681B6813F0400F17D104F0ADF8C01BB4
:10386000B0F5FA7F02D8FFF72BFFF0E7236B0BB11F
:1038700000209847236A13B15A6901325A614146C0
:103880005B480BF0B1FF0327C1E0FFF719FF236B83
:103890000BB1002098472046FFF706FE074638B9CF
:1038A000236993B104F088F883464FF0000A61E081
:1038B000236A13B11A6901321A6123685B6C3A46B4
:1038C00041464C480BF090FFA1E0236A13B11A69FE
:1038D00001321A61414648480BF086FF012796E005
:1038E000236A13B15A6901325A61CDF804A00096D7
:1038F0002B46424A41462046FFF7EAFCBAF1000F48
:1039000004D12046FFF794FE032780E052463C494D
:103910003C48FFF7E3FEF4E7236A13B15A6901322A
:103920005A61CDF804A000962B46344A4146204601
:10393000FFF7CEFCBAF1000F04D12046FFF778FE66
:10394000032764E052462E492E48FFF7C7FEF4E7EE
:103950004A4603A92A4850440CF075F9D1441FFA8D
:1039600089FA00962B4694F8242051462448FFF704
:103970000CFE58BB04F020F8A0EB0B03B3F5FA7F64
:10398000AED2ABEB000303F5FA73002202A9206963
:103990000AF044FE0028BFD1BDF88C90B9F5007F35
:1039A00011D809EB0A039BB2B3F5007FD0D9C9F552
:1039B00000739BB2AAEB030111489A461A460144D0
:1039C0000CF0A8F8C4E74FF0000ACAE7236AF3B185
:1039D000DA680132DA601AE0042B002006000020C9
:1039E000B8290108EC290108182A0108542A0108FD
:1039F000842A0108B02A0108002B0108242B0108A1
:103A0000D0280020302B0108012700E0012738468C
:103A100035B0BDE8F08F00BF2DE9F04F91B0814681
:103A200000244FF0010B062C72D8504B04EB4402DB
:103A300003EB420133F812A0B1F802800AEB08024E
:103A400092B2651C062D13D805EB4503474931F8A2
:103A5000133093420CD105EB4501444B03EB41037A
:103A60005B8898441FFA88F813449AB20135E9E755
:103A7000B8F1200F01D800261CE0D9F8203013B18E
:103A80001A6901321A614246514639480BF0ACFEC0
:103A90004FF0000B3CE0354901EB420102230DEBF6
:103AA000460289884846FFF78BFC02285AD13E44DB
:103AB000B6B20134AC422FD204EB44022B4B03EBE1
:103AC00042035F88022FE6D0012F10D104EB44039C
:103AD000264901EB430101230DEB46028988484644
:103AE000FFF795FC0128E2D04FF0000B10E0D9F869
:103AF000203013B11A6901321A6104EB44041B4BE4
:103B000033F8142039461B480BF06EFE4FF0000BC3
:103B1000584611B0BDE8F08F6B46424651464846C4
:103B2000FFF700FE032805D058B1032813D04FF04B
:103B3000000B78E76B46424651464846FFF7F2FDD8
:103B4000F2E70D4A13680133136042465146484676
:103B5000FFF780FC67E7094A1368013313604FF0F1
:103B6000000B60E74FF0000BD2E700BFA433010861
:103B7000482B0108802B0108D42A0020D02A0020DD
:103B800010B582B00023ADF80030ADF80230ADF8CA
:103B9000043048B104466B4603224FF42F61FFF70F
:103BA000C1FD032802D048B902B010BD6B46032204
:103BB0004FF42F612046FFF7B5FDF4E701460248B8
:103BC0000BF012FEF0E700BFB42B0108002847D02D
:103BD0002DE9F0470E4617460546089A002A41D0BF
:103BE000042941D9DBB24FEA43085FFA88F808F1AB
:103BF000050949453AD3002401E00134A4B204EB9D
:103C000009039BB2B34228D805EB040A2B5DBB42E3
:103C1000F3D19AF80130032BEFD19AF802304345E3
:103C2000EBD108F103015046FEF792F904EB0903CA
:103C30002B4413F8022C13F8013C42EA0323984268
:103C4000DBD1089A49465046FEF7C7F90128D4D17E
:103C5000099B1BB1A3F8009000E00020BDE8F087AD
:103C6000002070470020F9E70020F7E70020F5E783
:103C70002DE9F04FADB004460F4616461D4603F041
:103C80009BFE0023ADF81630002C00F080818046AA
:103C9000002D00F07F814822194628460BF054FF82
:103CA00094F824308DF8A83003238DF8A930ADF8AE
:103CB000AA70ADF8AC60082228A92AA8FEF769F915
:103CC0008246F8B1A14B1A6802F10109C3F80090CD
:103CD00023693BB100231A4606A920690AF09EFC1D
:103CE0000028F7D02046FFF795FC994B1B7813BBB3
:103CF00003F062FEA0EB0803B3F5FA7F0FD8FFF7DD
:103D0000DFFCF2E7236A13B11A6901321A61324605
:103D1000394690480BF068FD4FF001083CE1236AFA
:103D200013B15A6901325A6149468B480BF05CFD68
:103D30004FF0030830E1864B00221A70236B0BB161
:103D400001209847524628A9206805F0C9FEA0B175
:103D5000236B0BB1002098477D4B01221A70236A18
:103D600013B11A6901321A6123685A6C49467B48BB
:103D70000BF03AFD4FF001080EE103F01DFE804606
:103D8000734B1B78CBB903F017FEA0EB0800B0F51E
:103D9000FA7F02D8FFF794FCF2E7236B0BB1002007
:103DA0009847236A13B15A6901325A6149466C48EF
:103DB0000BF01AFD4FF00308EEE003F0FDFD804626
:103DC00023681B681B6813F0400F19D103F0F4FD42
:103DD000A0EB0800B0F5FA7F02D8FFF771FCEFE71F
:103DE000236B0BB100209847236A13B15A69013243
:103DF0005A6149465B480BF0F7FC4FF00308CBE0F3
:103E0000FFF75EFC236B0BB1002098472046FFF7BD
:103E10004BFB804638B9236993B103F0CDFD039085
:103E20004FF0000B68E0236A13B11A6901321A617E
:103E300023685B6C424649464B480BF0D5FCABE02F
:103E4000236A13B11A6901321A61494647480BF0D7
:103E5000CBFC4FF001089FE0236A13B15A6901328D
:103E60005A61CDF804B000963B46414A4946204687
:103E7000FFF72EFABBF1000F05D12046FFF7D8FB64
:103E80004FF0030888E05A463A493B48FFF726FCC2
:103E9000F3E7236A13B15A6901325A61CDF804B0CD
:103EA00000963B46324A49462046FFF711FABBF1DD
:103EB000000F05D12046FFF7BBFB4FF003086BE076
:103EC0005A462C492C48FFF709FCF3E7524607A94C
:103ED000284858440BF0B7FEDA441FFA8AFB0DF16C
:103EE00016030193009533469DF8A82059462148B2
:103EF000FFF76CFE002844D103F05EFD039BC31A5C
:103F0000B3F5FA7FA8D2039B1B1A03F5FA730022BC
:103F100006A920690AF082FB0028BAD1BDF89CA04E
:103F2000BAF5007F2AD80AEB0B039BB2B3F5007FEA
:103F3000CCD9CAF500739BB2ABEB03010D489B468D
:103F40001A4601440BF0E6FDC0E700BF042B002039
:103F500006000020E82B0108EC2901081C2C0108B0
:103F6000542C0108802C0108A42C0108002B010806
:103F7000F02C0108D0280020F82C01084FF0000B8D
:103F8000ADE7236A43B1DA680132DA6004E04FF04A
:103F9000010801E04FF0010840462DB0BDE8F08F68
:103FA00000286BD0F0B59BB00E46144607467AB198
:103FB00092F8463063B1B2F844304BB1406938B141
:103FC000FB692BB105210AF077F968B9002527E0D4
:103FD0003B6A4BB144B194F846202AB1B4F844206E
:103FE00012B91A6901321A611BB0F0BD3B6A13B1F4
:103FF0001A6901321A6140F6E4139E422AD8B4F8D5
:10400000443033449BB240F6C412934234D9682200
:10401000F96968460BF017FE01241CE00135ADB2CA
:10402000B4F84430AB42E6D9A81980B2FEF71CF8C8
:1040300001460028F2D0437A5B08D7D02B44B4F86D
:1040400044209342D2DC04EB45020432F869FFF7C6
:1040500002F9E3E7002478690AF05DF9B86910B164
:1040600002210AF0B3F8002CBED0684600F0C4FC70
:10407000684601F093F9B7E70024ECE770470000C9
:10408000F0B52DED028BB5B006460D4600248DF837
:104090001F4006948DF8174000230493039300E01B
:1040A0000134022C19D804EB4403844A32F813304B
:1040B0002B42F5D004EB440302EB4302578822ABBA
:1040C000928839463046FFF7D3FD0028E8D122AA6E
:1040D00039463046FFF764FFE2E705F0040415F0C7
:1040E000010F0BD03EB1706928B1F3691BB10521F6
:1040F0000AF0E2F888B172480BF0E6FB4CB146B129
:10410000706930B1F36923B105210AF0D5F80028B0
:1041100033D035B0BDEC028BF0BD6822F16908A840
:104120000BF091FD70690AF0F6F80DF117009DEDA6
:104130000F0A00F0FDFFB0EE408A9DF817300BB972
:104140009FED608A01A8B0EE480AFFF77DF801AB49
:10415000022240F2DA713046FFF7E4FA0028CDD1AE
:10416000052170690AF0A8F80028C7D1F36983ED2A
:10417000058A70690AF0CFF8C0E76822F16908A8DB
:104180000BF061FD70690AF0C6F806A90DF11F0079
:1041900000F0F4FDBDF87C30002B3FD10023BDF8CA
:1041A0007E20002A45D10024002B44D1002CB0D021
:1041B00006A90DF11F0000F0E1FD03A904A800F01D
:1041C00063FD00285CD001A89DED040AFFF73CF8D0
:1041D00002A89DED030AFFF737F801AB042240F671
:1041E000DF113046FFF79EFA00283CD005217069A8
:1041F0000AF062F8002848D1F369049A5A65F36915
:10420000039A9A656822F16908A80BF01CFD706991
:104210000AF081F808A801F0C1F836E0BDF86000A6
:1042200000F006FD06A90DF11F0000F0A7FD012317
:10423000B5E70124B8E70023ADF8043001AB012253
:1042400040F6E3113046FFF76DFA052170690AF078
:1042500033F80028AAD1F3690022A3F85C20706922
:104260000AF059F8A2E722AB042240F6DF113046EB
:10427000FFF7FEFC0028B9D013480BF025FBB5E78B
:1042800006A90DF11F0000F079FD0023ADF8043000
:1042900001AB012240F6E4113046FFF743FA052155
:1042A00070690AF009F800287FF433AFF36900223F
:1042B000A3F85E2070690AF02EF82AE7DC330108C3
:1042C0000C2D010800000000402D0108D8B110B5E8
:1042D0000446006880B1636873B1A16861B1A289C6
:1042E00005F088FF48B9084B00221A8063681A68F5
:1042F000136823F00803136010BD2368596C03484A
:104300000BF072FAF8E77047CC280020742D0108F2
:10431000002800F0B0802DE9F043A3B00D4604461C
:10432000036813B3436803B38368F3B111B183899E
:104330008B421DD2206805F0FBFE2238C0B2012856
:1043400040F28D80A289A168206805F053FF30B14A
:10435000022800F08B80484A1368013313606368B9
:104360001A68136823F00803136023B0BDE8F083D4
:10437000424B1E8803F020FB414B1860414B1D80CF
:10438000414B1E80414B1D800023414A1380414A0E
:104390001360B542CED0404A13680133136003F076
:1043A0000BFB00900023ADF88630B54222D9AF1B3D
:1043B000BFB2802F00D98027A1683A46314401A8B6
:1043C0000BF041FCADF884702C4B1D80BDF88420AF
:1043D0002F4B1A802069002839D000231A466946DD
:1043E0000AF0DAF82B4B186060BB2C4A13680133D3
:1043F00013609FE7B4F80C90A9EB06081FFA88F841
:1044000005EB0807BFB2802F00D98027474508D8A1
:10441000A1683A46314401A80BF015FCADF8847050
:10442000D2E7A1684246314401A80BF00CFC0DEB29
:104430000800A6EB09023A4492B2A16804300BF0DE
:1044400002FCEBE7164A13680133136072E7114B65
:10445000144A1A60124A1368013313606AE76368EA
:104460001A68136823F0080313607EE70E4A136886
:104470000133136073E77047F82A0020CC2800202E
:10448000E42A0020E22A0020E02A0020DE2A002080
:10449000DC2A0020D82A0020002B0020EC2A002053
:1044A000E82A002018FCFFFFF42A002000B310B512
:1044B00004460368B3B14368A3B1836893B10D4A5E
:1044C000136801331360FEF7E1FE28B102280AD019
:1044D000094A13680133136063681A68136823F08C
:1044E0000803136010BD054A136801331360F3E736
:1044F000704700BFFC2A0020F82A0020F42A002080
:10450000014B01221A7070470600002000284BD092
:1045100070B592B00446FFF77FFA05466B46042259
:104520004FF42F612046FFF7A3FB38B1A06918B103
:104530004FF4007109F04AFE12B070BD6A464FF4A4
:104540002F612046FFF72CFD00231E4600E00133BB
:10455000022B13D8BDF84410144A12F823209142BC
:10456000F5D912A901EB420232F8442C002AEED010
:104570000E4A02EB830252881643E8E70C4B198877
:1045800026EA01011E800DB131B94EB9002DCDD101
:1045900008480BF099F9C9E72046FFF771FDF4E7E9
:1045A0002046FFF7EDFAC1E7704700BFD03301089E
:1045B000CA280020A42D010800286CD02DE9F04F56
:1045C00091B00446456AD0F82880C66A076BB0F8F7
:1045D0003490B0F836A0B0F840B0006AFBF794FF12
:1045E000CDE90E01CDF828B0CDF824A0CDF820906B
:1045F0003846FBF789FFCDE906013046FBF784FF1B
:10460000CDE904014046FBF77FFFCDE902012846D2
:10461000FBF77AFFCDE90001DDE90E231E480BF020
:10462000E3F8A66CE76CD4F85080D4F85490D4F832
:1046300058A0606CFBF768FF04460D46174B1868DE
:10464000FBF762FFCDE90C01154B1868FBF75CFF27
:10465000CDE90A015046FBF757FFCDE9080148466E
:10466000FBF752FFCDE906014046FBF74DFFCDE9D0
:1046700004013846FBF748FFCDE902013046FBF75D
:1046800043FFCDE9000122462B4606480BF0ACF86B
:1046900011B0BDE8F08F7047E02D0108342B0020E9
:1046A000382B0020402E0108002800F07A8108B540
:1046B000034690ED115ABB4AD2ED007AB4EE675A28
:1046C000F1EE10FA52D190ED127AD2ED017AB4EEF9
:1046D000677AF1EE10FA49D190ED137AB24AD2ED31
:1046E000007AB4EE677AF1EE10FA3FD190ED147AC9
:1046F000D2ED017AB4EE677AF1EE10FA36D190ED90
:104700000A7AAA4AD2ED007AB4EE677AF1EE10FA8C
:104710002CD190ED0B7AA64AD2ED007AB4EE677AEE
:10472000F1EE10FA22D190ED0C7AA24AD2ED007A85
:10473000B4EE677AF1EE10FA18D190ED087A9E4A3D
:10474000D2ED007AB4EE677AF1EE10FA0ED190ED68
:10475000097A9A4AD2ED007AB4EE677AF1EE10FA4D
:1047600004D1818E964A128891423FD08D4A82EDC3
:10477000005AD3ED124AC2ED014AD3ED133A8A4AE8
:10478000C2ED003A93ED144A82ED014AD3ED0A5A84
:10479000864AC2ED005A93ED0B6A854A82ED006AA3
:1047A000D3ED0C6A834AC2ED006A93ED087A824A1F
:1047B00082ED007AD3ED097A804AC2ED007A998EB3
:1047C0007F4A1180DA8E7F480280B5EE405AF1EEC2
:1047D00010FA11D0F5EE403AF1EE10FA22D025EEA3
:1047E000235AB7EE003AC3EE053A07E0C18E754A88
:1047F00012889142BAD1D3E0DFED733A7348C0ED2D
:10480000003AF5EE404AF1EE10FA0ED0B5EE404A0D
:10481000F1EE10FA1DD064EE844AB0EE004A84EE48
:10482000245A04E0DFED683AE8E79FED675A6748ED
:1048300080ED015AB7EE005A76EE856A76EEA66AEA
:1048400052B9F5EEC05AF1EE10FA05DD25EEA66A72
:1048500008E09FED5D5AEAE7012A63D09FED5A6AAE
:10486000F0EE465A5A4AC2ED005A5A4A82ED006AA0
:10487000DFED596A27EE267A67EEA67AB5EEC07AA2
:10488000F1EE10FA63D9F5EEC07AF1EE10FA5ED4CB
:10489000B4EEE77AF1EE10FA03D8DFED507A67EE66
:1048A000277ADFED4F6A65EEA65A27EE075A65EEC6
:1048B000076A66EE876A27EEA74A64EE274A64EE27
:1048C000A77A76EEE76A35EE445AF5EEC05AF1EE75
:1048D00010FA06D9DFED437AF4EEE76AF1EE10FA4A
:1048E0003ED8414A00211160B5EEC06AF1EE10FADF
:1048F00050DDDFED3C7AB4EEE75AF1EE10FA49DD17
:10490000DFED377A66EE277A9FED387A67EE877AA1
:1049100067EE857AB5EE007A67EE877A344AC2EDA3
:10492000007A3AE0B5EEC06AF1EE10FA07DDF5EE76
:10493000406AF1EE10FA07D0C6EE265A92E79FEDD4
:10494000226AF0EE465A8DE7DFED1F5A8AE7002211
:1049500025490A6026490A601846FFF72DFE1FE028
:10496000A9B9FFEE007A77EEA77A67EEA57ADFEDB8
:104970001F5A67EEA57A67EEA67AC7EE876ADFED63
:104980001D7A66EEA77A184AC2ED007AACE7F7EE18
:10499000007AE8E7164A002111601846FFF70CFE7E
:1049A00008BD70472C2B0020242B0020202B00203A
:1049B0001C2B0020182B0020142B0020102B002073
:1049C0000A00002008000020000000000C00002069
:1049D0000C2B0020082B00206F12833A77BE7F3FFC
:1049E000286B6E4E5F708930382B0020DB0F4940FA
:1049F000342B00200000803D08B5FFF755FE08BDB0
:104A000008B5302200211E480BF09EF800211D4BF6
:104A10001970002200231C48C0E900231B48C0E98C
:104A200000231B48C0E900231A48C0E900231A4BA1
:104A300019601A4B19801A4B4FF07E521A605A6057
:104A40000023184A1360184A1360184A1360536011
:104A5000174A13605360174A1360174A1360174AC6
:104A60001360174A1360174A13604FF6FF72164916
:104A70000A8016490A80164A1360164A136008BD58
:104A8000702B0020682B0020602B0020582B00206A
:104A9000502B0020482B0020402B00203E2B0020D4
:104AA0000C000020382B0020342B00202C2B002061
:104AB000242B0020202B00201C2B0020182B002052
:104AC000142B0020102B00200A00002008000020DA
:104AD0000C2B0020082B00202DE9F0472DED028B38
:104AE00082B010EE105A10EE904A09F08BFFDFF8FA
:104AF0000CA1DAE900892846FBF706FD06460F46B9
:104B000002460B4640464946FBF7A0FBCAE90001B6
:104B1000DAE902892046FBF7F7FC04460D46024617
:104B20000B4640464946FBF791FBCAE90201DAE928
:104B3000048932463B4630463946FBF73DFDCDE918
:104B4000000102460B4640464946FBF77FFBCAE997
:104B500004019AED068B22462B4620462946FBF798
:104B60002BFD8046894602460B4651EC180BFBF79D
:104B70006DFBCAE90601DAF824300133CAF82430A3
:104B8000194B1B78002B28D0DFF874A032463B4627
:104B9000DAE90001FBF75AFBCAE90001134E22468D
:104BA0002B46D6E90001FBF751FBC6E90001104C8A
:104BB000DDE90023D4E90001FBF748FBC4E900016B
:104BC0000C4C42464B46D4E90001FBF73FFBC4E9DD
:104BD0000001094A13680133136009F035FF02B080
:104BE000BDEC028BBDE8F087682B0020582B00201D
:104BF000502B0020482B0020402B0020702B002041
:104C0000602B0020034600B10123014A1370704756
:104C10003C2B0020054BD3ED087A77EE807AC3ED6C
:104C2000087A9A6A01329A62704700BF702B00209E
:104C300010B5044609F0E6FE0C4B01221A70002262
:104C400000230B49C1E900230A49C1E900230A49AD
:104C5000C1E900230949C1E90023094B00221A6078
:104C6000084B1C8009F0F0FE10BD00BF682B00202F
:104C7000602B0020582B0020502B0020482B0020B8
:104C8000402B00203E2B0020002862D02DE9F04D63
:104C90002DED068B0C46804600295CD009F0B2FE53
:104CA0002F4B93ED008B2F4BD3E900AB2E4B93EDA5
:104CB00000AB2E4B93ED009B2D4B1D682D4B1E889A
:104CC0002D4B00221A7009F0BFFE002D45D0012E99
:104CD0001CD02846FBF7F6FB06460F4602460B465D
:104CE00051EC180BFBF792FDFBF73EFFC8F80000F4
:104CF00032463B4650465946FBF788FDFBF734FFEA
:104D000020600120BDEC068BBDE8F08D2846FBF746
:104D1000D9FB06460F4602460B4651EC1A0BFBF731
:104D200075FDFBF721FF00EE100A0CF04DFF88ED3A
:104D3000000A32463B4651EC190BFBF767FDFBF7C7
:104D400013FF00EE100A0CF03FFF84ED000A012073
:104D5000D8E7002070470020D4E70020D2E700BF4A
:104D6000602B0020582B0020502B0020482B0020C7
:104D7000402B00203E2B0020682B002038B5054634
:104D80000C4609F03FFE15B1044B1B782B7014B193
:104D9000034B1B68236009F057FE38BD682B0020C9
:104DA000402B0020002800F0E780F0B52DED048BAB
:104DB000A7B00C460546002900F0D28009F022FE7B
:104DC0006E4F1AAEBC46BCE80F000FC6BCE80F0021
:104DD0000FC69CE80F0086E80F00302200213846FD
:104DE0000AF0B2FE09F030FE286830B16B6823B1DA
:104DF000022109F061FA002847D0682200216846A4
:104E00000AF0A2FEDDED159ADDED168A5C4B1B78EB
:104E1000002B43D12398002800F0A680FBF752FB1B
:104E200006460F4602460B46DDE91A01FBF7EEFC8B
:104E3000FBF79AFE08EE100A32463B46DDE91C01FC
:104E4000FBF7E4FCFBF790FE00EE100ABDF84030E3
:104E5000012B27D132463B46DDE91E01FBF7D6FC8C
:104E6000FBF782FE00EE100A0CF0AEFEB0EE408AB8
:104E700032463B46DDE92001FBF7C8FCFBF774FE38
:104E800000EE100A0CF0A0FE0CE06822696868468B
:104E90000AF0D9FE286809F03EFAB3E7B0EE680AD6
:104EA000B0EE698A249E002E63D007EE906AF8EE79
:104EB000677A9DED227A87EE279A38EE698A314B20
:104EC000D3ED007A28EE278A30EE680AD3ED017A16
:104ED00020EE270A2C4BD3ED007A28EE278ADFED4F
:104EE0002B7AC8EE278A2A4B93ED007A20EE070A28
:104EF000C0EE279A29EE288ADFED267A28EE278A47
:104F000002F05AFD2060C4ED018AC4ED029A84EDDE
:104F1000039A84ED048ABDF860301B0403F48033E7
:104F2000BDF86220520402F400321343BDF864203D
:104F3000920402F480221343239A120292B2134382
:104F4000F6B233436361EA6852B11269120602F0A5
:104F5000706213436361EA68D26943EA0273636172
:104F600027B0BDEC048BF0BDB0EE680AB0EE698AE4
:104F700098E79FED099AA0E7704700BF702B0020CB
:104F80003C2B00200C000020382B002000007A442D
:104F9000342B00205077D63D00000000F2EE047A5A
:104FA00020EE270AF7EE007AB4EEE70AF1EE10FAE7
:104FB00008D4F6EE007A30EE270AFCEEC07A17EE3F
:104FC000900A7047B0EE670AF3E7000008B509F0F1
:104FD00019FD4FF4B46200210A480AF0B5FD002122
:104FE000094B1960094B1960094B00221A60094BE3
:104FF00019604FF4346208480AF0A6FD09F024FD58
:1050000008BD00BFF0360020EC360020E836002056
:10501000E4360020E0360020A02B002010B52DED56
:10502000028BB0EE408A044609F0ECFC384B1B685A
:10503000B3F5B47F57D2374A1168374A02EB810281
:1050400082ED008A354AD2ED007A77EE887AC2ED99
:10505000007A01332E4A13602E4A11680131CB08C1
:105060002F48A0FB03C39B084FF4B47C0CFB131325
:105070001360E208A0FB020292082A4BA3FB021372
:10508000DB09C3EB0313A2EB031303EB4300264935
:1050900001EB80018968914207D0234901EB80012F
:1050A00000200860002088808A6003EB43011E4ACC
:1050B00002EB8102D2ED007A77EE887AC2ED007AB7
:1050C00092884FF6FF718A4206D003EB43031649DC
:1050D00001EB830301329A80144B1C6009F0B4FC8D
:1050E000BDEC028B10BD0B4B1A680B4B03EB82031C
:1050F00093ED007A094AD2ED007A77EEC77AC2EDD5
:10510000007A83ED008A77EE887AC2ED007AA3E711
:10511000E8360020EC360020F0360020E43600208F
:10512000176CC11689888888A02B0020E0360020E3
:1051300070B52DED028B0646DFED327AB4EEE70A4C
:10514000F1EE10FA09D4F3EE087AB4EEE70AF1EEC4
:1051500010FA04DDB3EE080A01E09FED2A0AFFF71A
:105160001DFF044618B1F02802D9F02400E0012404
:1051700009F048FC244B93ED008ADFED247A38EEE9
:10518000278A234B1D68234B1B684FEAD30C224B05
:10519000A3FB0C3C4FEA9C0C012200E0013294423C
:1051A0001BD9ACEB02011D4BA3FB0103DB09C3EBD5
:1051B0000313A1EB031303EB430E194800EB8E001E
:1051C00080688842EAD1164901EB8E00D0ED007A62
:1051D00038EE278A83881D44E0E709F035FC5DB18D
:1051E0000EB10123337007EE905AF8EE677A88EE1D
:1051F000270ABDEC028B70BD0EB1002333709FED0A
:10520000030AF6E7CDCCCC3DE436002000000000D8
:10521000E8360020E0360020176CC116898888889F
:10522000A02B0020F0B100B586464FF0000C4FF0E7
:10523000FF320DE052080133DBB2072B06D812F023
:10524000010FF7D0084880EA5202F4E70CF1010C94
:105250008C4504D21EF80C305A400023EDE7D043B1
:105260005DF804FB002070472083B8ED002824D0AF
:10527000002922D0C2690A60026A4A60426A8A60D2
:10528000826ACA60C26A0A61026B4A61828E0A83BC
:10529000C28E4A83826BCA61C26B0A62B0F8402038
:1052A0008A84426C8A62826CCA62C26C0A63026D32
:1052B0004A63426D8A63836DCB637047002824D0B4
:1052C000002922D00A68C2614A6802628A68426282
:1052D000CA6882620A69C2624A6902630A8B82866C
:1052E0004A8BC286CA6982630A6AC2638A8CA0F842
:1052F00040208A6A4264CA6A82640A6BC2644A6B4A
:1053000002658A6B4265CA6B82657047002837D098
:1053100070B504461B4B1A681B4B9A4207D1194BB8
:105320005B68012B03D1174B9B68402B03D00020F7
:10533000164B187070BD40211548FFF773FF114BD5
:10534000DB68834203D00020104B1870F2E7104D49
:1053500029462046FFF7B2FF0E4E2C460FCC0FC653
:105360000FCC0FC60FCC0FC694E80F0086E80F00D5
:105370000124064B1C7008480AF0A6FA2046D9E71B
:105380000020704700000E0850435053903C00200E
:1053900010000E08943C0020AC2E010870B5AAB095
:1053A00000230093002800F0818006A9FFF75EFF2C
:1053B000414B1B7833B14022404906A80AF09AFBC2
:1053C000002877D05022FF2116A80AF0BDFB3C4BE5
:1053D000169301231793402518951AAC0DF1180C5C
:1053E000BCE80F000FC4BCE80F000FC4BCE80F00FE
:1053F0000FC49CE80F0084E80F0029461AA8FFF7A5
:1054000011FF199001F09AFD044678B90023019329
:105410000B2303930123049302230593694601A8F8
:1054200001F084FE064638B900240FE00146254805
:105430000AF0DAF900263AE001F098FD009A3146C8
:1054400021480AF0D1F9264631E001344F2C18D812
:10545000002004F1A8030DEB030212F8502C0346C0
:1054600004F1006101F5602101F0BAFD0546002854
:10547000EBD001F07BFD2246294614480AF0B4F92E
:1054800015E001F073FD0D4C06AD0FCD0FC40FCD2F
:105490000FC40FCD0FC495E80F0084E80F0001265C
:1054A000054B1E700A480AF00FFA00E0002630464D
:1054B0002AB070BD0126FAE7903C0020943C002001
:1054C00050435053D42E0108FC2E0108302F010800
:1054D000642F010808B572B601480AF0F5F9FEE735
:1054E0008C2F010808B572B619B103480AF07CF98F
:1054F000FEE70249F9E700BFA42F0108B82301081D
:10550000FEE7FEE7FEE7FEE7FEE7704708B502208C
:1055100001F052FF08BD000008B5024802F0CEF8C5
:1055200008BD00BF181E002008B5024802F0C6F8EA
:1055300008BD00BFB81D002008B5024802F0BEF843
:1055400008BD00BFD81E002008B5024802F0B6F81A
:1055500008BD00BF781E002008B5024804F03CFCDE
:1055600008BD00BFD020002008B5024804F034FC7C
:1055700008BD00BF8820002008B5024804F02CFCBC
:1055800008BD00BF4020002008B5024800F038FEEA
:1055900008BD00BFD43C002008B5024802F08EF8D8
:1055A00008BD00BF981F002008B5024802F086F829
:1055B00008BD00BFC021002008B5024802F07EF8F7
:1055C00008BD00BF6021002008B5024802F076F84F
:1055D00008BD00BF381F002008B500F085FB08BDDE
:1055E00008B5024804F0F8FB08BD00BFF81F002012
:1055F00000B583B0002200920D4B596C41F48041FC
:105600005964596C01F48041009100990192196C20
:1056100041F0805119641B6C03F080530193019B8E
:105620000F216FF0010002F08DF903B05DF804FB6B
:105630000038024030B589B00023039304930593EA
:1056400006930793026803F1804303F590339A426F
:1056500001D009B030BD04460025019503F58C3317
:105660005A6C42F480725A645A6C02F4807201924D
:10567000019A02951A6B42F004021A631B6B03F045
:1056800004030293029B042303930323049303A9BB
:105690000F4801F095FD0F480F4B03604560856092
:1056A000C56005614FF4805343614FF480438361CB
:1056B0004FF48073C3610562456201F007FF18B9BA
:1056C000044BA3639C63C4E7FBF7B2FFF8E700BF9A
:1056D00000080240D0220020106402402DE9F0436F
:1056E00089B00023039304930593069307930268FC
:1056F0004A4B9A4202D009B0BDE8F0830446002527
:10570000009503F586335A6C42F400625A645A6C71
:1057100002F400620092009A01951A6B42F00402B2
:105720001A631A6B02F004020192019A02951A6B35
:1057300042F008021A631B6B03F008030293029BFA
:105740004FF4F85303934FF00209CDF8109003265D
:1057500006964FF00C08CDF81C800DEB0801304880
:1057600001F02EFD04270397CDF8109005950696BD
:10577000CDF81C800DEB08012A4801F021FD2A48D4
:105780002A4B03604FF0006343608560C5604FF4AF
:10579000806303614FF4805343614FF4804383611E
:1057A0002023C3610562476286624FF40003C3622F
:1057B0004FF40013036301F089FE48BB1A4B2364C6
:1057C0009C631B481B4B03604FF000634360402306
:1057D00083600023C3604FF4806202614FF4805203
:1057E00042614FF4804282612022C261036204233D
:1057F0004362032383624FF40003C3624FF4001338
:10580000036301F063FE30B9094BE3639C6372E705
:10581000FBF70EFFD2E7FBF70BFFF5E7002C01408B
:1058200000080240000C0240C021002058640240E1
:1058300060210020A064024000B589B000230393DA
:1058400004930593069307930268134B9A4202D080
:1058500009B05DF804FB0021019103F50B331A6CCC
:1058600042F008021A641A6C02F008020192019ACE
:1058700002911A6B42F001021A631B6B03F00103E1
:105880000293029B0123039302230493079303A92A
:10589000024801F095FCDBE7000C004000000240EC
:1058A00000B585B00023009301930293039302682F
:1058B0000B4B9A4202D005B05DF804FB0223009323
:1058C0004FF400730393684601F0FCF920B9054BCF
:1058D0000122C3F83C2EEEE7FBF7AAFEF7E700BF74
:1058E000002800400000474230B58FB00446002336
:1058F00009930A930B930C930D9303689A4A93426E
:105900000CD09A4A93426BD0994A934200F0C980D6
:10591000984A934200F04E810FB030BD00250195AA
:10592000954B5A6C42F010025A645A6C02F0100205
:105930000192019A02951A6B42F001021A631B6BE5
:1059400003F001030293029B4FF4C0630993022307
:105950000A9303230C9307230D9309A9874801F0A9
:105960002FFC8748874B03604FF0006343608560DE
:10597000C5604FF480630361456185614FF48073B6
:10598000C3610562456201F0A1FD18BB7C4BE36376
:105990009C637D487D4B03604FF000634360402370
:1059A00083600023C3604FF48062026143618361BE
:1059B000C3610362436201F089FD70B9724BA36356
:1059C0009C6300220521252001F0BCFF252001F069
:1059D000C9FFA1E7FBF72CFED8E7FBF729FEEDE7AF
:1059E00000250395644B1A6C42F400321A641A6C59
:1059F00002F400320392039A04951A6B42F00102FA
:105A00001A631B6B03F001030493049B0C2309939B
:105A100002230A9303230C9307230D9309A95748E4
:105A200001F0CEFB5A485B4B03604FF000634360CC
:105A30008560C5604FF480630361456185614FF403
:105A40008073C3610562456201F040FD18BB504B95
:105A5000E3639C635048514B03604FF00063436025
:105A6000402383600023C3604FF48062026143617E
:105A70008361C3610362436201F028FD70B9464B44
:105A8000A3639C6300220521262001F05BFF2620F2
:105A900001F068FF40E7FBF7CBFDD8E7FBF7C8FD57
:105AA000EDE700250595344B1A6C42F480221A6408
:105AB0001A6C02F480220592059A06951A6B42F040
:105AC00002021A631B6B03F002030693069B4FF45A
:105AD0004063099302230A9303230C9307230D9336
